:020000040000FA
:08000000803102288731F92F3D
:100F3A004D3041019D0090309E0008004001920111
:100F4A009301083094007E01B801C3010830CE0035
:100F5A000430B900C4010C30CF00080041019D14CF
:100F6A009D18B82FB92FB52F1C08F400F501740885
:100F7A00F2007508F3001B08F400F5017408F0008C
:100F8A007508F10008008731A327873187319D272B
:100F9A0087318731B32787317108803AF60081306B
:100FAA007602031DDA2FF4307002031CDD2FDE2FC8
:100FBA00E22F400118169812CE2F7108803AF600D7
:100FCA0081307602031DEB2F2C3070020318EE2FAE
:100FDA00EF2FF32F400118129816CE2F40019812C6
:100FEA001812CE2F80310228F001F101F201F3012B
:060FFA0040018731C82F01
:020000040001F9
:04000E00ED3FE73F9C
:04001400FF3FFF3F6C
:00000001FF
