:020000040000FA
:060000000A128A11EC2F28
:100ED00000340934831603138611061208008316A2
:100EE00003139F171F08F0390E389F001F1383123A
:100EF00003139F139F171F1408000A128A116A27F1
:100F00000A128A110A128A116F270A128A110030F6
:100F10000A128A119A270A128A117508F9007408B0
:100F2000F8000A128A11B9270A128A11872F0A12A9
:100F30008A110028F7007708F600F60EF60DF60D78
:100F4000831203131F0876063F3976069F00083088
:100F5000F600F60BA92F831203131F151F19B12FCB
:100F6000B22FAE2F1E08F500831603131E08F400DF
:100F7000080001307902F43003197802031CC12FF4
:100F8000C22FC72F8312031386110616EB2F0130D1
:100F900079022C3003197802031CCF2FD02FDE2FBB
:100FA00001307902F430031978020318D82FD92FB1
:100FB000DE2F8312031386110612EB2F0130790204
:100FC0002C30031978020318E62FE72FEB2F83123A
:100FD00003138615061208000A128A1168270A12DE
:100FE0008A11FA000A128A1169270A128A11FB0073
:100FF000F001F101F201F30183010A128A117D2F40
:02400E00F93F78
:00000001FF
